{
  "contractName": "Certificate",
  "abi": [
    {
      "anonymous": false,
      "inputs": [
        {
          "indexed": true,
          "internalType": "bytes32",
          "name": "certificateHash",
          "type": "bytes32"
        },
        {
          "indexed": true,
          "internalType": "address",
          "name": "issuer",
          "type": "address"
        },
        {
          "indexed": false,
          "internalType": "string",
          "name": "studentName",
          "type": "string"
        },
        {
          "indexed": false,
          "internalType": "string",
          "name": "programName",
          "type": "string"
        }
      ],
      "name": "CertificateIssued",
      "type": "event"
    },
    {
      "anonymous": false,
      "inputs": [
        {
          "indexed": true,
          "internalType": "bytes32",
          "name": "certificateHash",
          "type": "bytes32"
        },
        {
          "indexed": false,
          "internalType": "bool",
          "name": "isValid",
          "type": "bool"
        }
      ],
      "name": "CertificateVerified",
      "type": "event"
    },
    {
      "inputs": [
        {
          "internalType": "uint256",
          "name": "",
          "type": "uint256"
        }
      ],
      "name": "certificateHashes",
      "outputs": [
        {
          "internalType": "bytes32",
          "name": "",
          "type": "bytes32"
        }
      ],
      "stateMutability": "view",
      "type": "function",
      "constant": true
    },
    {
      "inputs": [
        {
          "internalType": "bytes32",
          "name": "",
          "type": "bytes32"
        }
      ],
      "name": "certificates",
      "outputs": [
        {
          "internalType": "address",
          "name": "issuer",
          "type": "address"
        },
        {
          "internalType": "string",
          "name": "studentName",
          "type": "string"
        },
        {
          "internalType": "string",
          "name": "programName",
          "type": "string"
        },
        {
          "internalType": "bool",
          "name": "isValid",
          "type": "bool"
        }
      ],
      "stateMutability": "view",
      "type": "function",
      "constant": true
    },
    {
      "inputs": [
        {
          "internalType": "string",
          "name": "studentName",
          "type": "string"
        },
        {
          "internalType": "string",
          "name": "programName",
          "type": "string"
        }
      ],
      "name": "issueCertificate",
      "outputs": [],
      "stateMutability": "nonpayable",
      "type": "function"
    },
    {
      "inputs": [],
      "name": "getCertificateHashes",
      "outputs": [
        {
          "internalType": "bytes32[]",
          "name": "",
          "type": "bytes32[]"
        }
      ],
      "stateMutability": "view",
      "type": "function",
      "constant": true
    },
    {
      "inputs": [
        {
          "internalType": "bytes32",
          "name": "certificateHash",
          "type": "bytes32"
        }
      ],
      "name": "verifyCertificate",
      "outputs": [
        {
          "internalType": "bool",
          "name": "",
          "type": "bool"
        }
      ],
      "stateMutability": "view",
      "type": "function",
      "constant": true
    },
    {
      "inputs": [
        {
          "internalType": "bytes32",
          "name": "certificateHash",
          "type": "bytes32"
        }
      ],
      "name": "getStudentName",
      "outputs": [
        {
          "internalType": "string",
          "name": "",
          "type": "string"
        }
      ],
      "stateMutability": "view",
      "type": "function",
      "constant": true
    },
    {
      "inputs": [
        {
          "internalType": "bytes32",
          "name": "certificateHash",
          "type": "bytes32"
        }
      ],
      "name": "getProgramName",
      "outputs": [
        {
          "internalType": "string",
          "name": "",
          "type": "string"
        }
      ],
      "stateMutability": "view",
      "type": "function",
      "constant": true
    }
  ],
  "bytecode": "0x608060405234801561001057600080fd5b50610ea4806100206000396000f3fe608060405234801561001057600080fd5b506004361061007d5760003560e01c80638376de171161005b5780638376de1714610101578063850c17681461011f578063a1735e711461014f578063de2090421461017f5761007d565b8063211bbe71146100825780636f564e7d1461009e578063742f0688146100ce575b600080fd5b61009c6004803603810190610097919061094f565b6101af565b005b6100b860048036038101906100b391906109fd565b6103ef565b6040516100c59190610ab2565b60405180910390f35b6100e860048036038101906100e391906109fd565b610496565b6040516100f89493929190610b30565b60405180910390f35b610109610603565b6040516101169190610c41565b60405180910390f35b610139600480360381019061013491906109fd565b61065b565b6040516101469190610c63565b60405180910390f35b61016960048036038101906101649190610cb4565b610687565b6040516101769190610cf0565b60405180910390f35b610199600480360381019061019491906109fd565b6106ab565b6040516101a69190610ab2565b60405180910390f35b600082826040516020016101c4929190610d47565b604051602081830303815290604052805190602001209050600073ffffffffffffffffffffffffffffffffffffffff1660008083815260200190815260200160002060000160009054906101000a900473ffffffffffffffffffffffffffffffffffffffff1673ffffffffffffffffffffffffffffffffffffffff1614610280576040517f08c379a000000000000000000000000000000000000000000000000000000000815260040161027790610db7565b60405180910390fd5b60405180608001604052803373ffffffffffffffffffffffffffffffffffffffff1681526020018481526020018381526020016001151581525060008083815260200190815260200160002060008201518160000160006101000a81548173ffffffffffffffffffffffffffffffffffffffff021916908373ffffffffffffffffffffffffffffffffffffffff160217905550602082015181600101908051906020019061032f929190610752565b50604082015181600201908051906020019061034c929190610752565b5060608201518160030160006101000a81548160ff02191690831515021790555090505060018190806001815401808255809150506001900390600052602060002001600090919091909150553373ffffffffffffffffffffffffffffffffffffffff16817f4c451700995b8d979fcd8236183ff98b9f4f729ab208512f6fcbb7e1ed0b496085856040516103e2929190610dd7565b60405180910390a3505050565b6060600080838152602001908152602001600020600201805461041190610e3d565b80601f016020809104026020016040519081016040528092919081815260200182805461043d90610e3d565b801561048a5780601f1061045f5761010080835404028352916020019161048a565b820191906000526020600020905b81548152906001019060200180831161046d57829003601f168201915b50505050509050919050565b60006020528060005260406000206000915090508060000160009054906101000a900473ffffffffffffffffffffffffffffffffffffffff16908060010180546104df90610e3d565b80601f016020809104026020016040519081016040528092919081815260200182805461050b90610e3d565b80156105585780601f1061052d57610100808354040283529160200191610558565b820191906000526020600020905b81548152906001019060200180831161053b57829003601f168201915b50505050509080600201805461056d90610e3d565b80601f016020809104026020016040519081016040528092919081815260200182805461059990610e3d565b80156105e65780601f106105bb576101008083540402835291602001916105e6565b820191906000526020600020905b8154815290600101906020018083116105c957829003601f168201915b5050505050908060030160009054906101000a900460ff16905084565b6060600180548060200260200160405190810160405280929190818152602001828054801561065157602002820191906000526020600020905b81548152602001906001019080831161063d575b5050505050905090565b600080600083815260200190815260200160002060030160009054906101000a900460ff169050919050565b6001818154811061069757600080fd5b906000526020600020016000915090505481565b606060008083815260200190815260200160002060010180546106cd90610e3d565b80601f01602080910402602001604051908101604052809291908181526020018280546106f990610e3d565b80156107465780601f1061071b57610100808354040283529160200191610746565b820191906000526020600020905b81548152906001019060200180831161072957829003601f168201915b50505050509050919050565b82805461075e90610e3d565b90600052602060002090601f01602090048101928261078057600085556107c7565b82601f1061079957805160ff19168380011785556107c7565b828001600101855582156107c7579182015b828111156107c65782518255916020019190600101906107ab565b5b5090506107d491906107d8565b5090565b5b808211156107f15760008160009055506001016107d9565b5090565b6000604051905090565b600080fd5b600080fd5b600080fd5b600080fd5b6000601f19601f8301169050919050565b7f4e487b7100000000000000000000000000000000000000000000000000000000600052604160045260246000fd5b61085c82610813565b810181811067ffffffffffffffff8211171561087b5761087a610824565b5b80604052505050565b600061088e6107f5565b905061089a8282610853565b919050565b600067ffffffffffffffff8211156108ba576108b9610824565b5b6108c382610813565b9050602081019050919050565b82818337600083830152505050565b60006108f26108ed8461089f565b610884565b90508281526020810184848401111561090e5761090d61080e565b5b6109198482856108d0565b509392505050565b600082601f83011261093657610935610809565b5b81356109468482602086016108df565b91505092915050565b60008060408385031215610966576109656107ff565b5b600083013567ffffffffffffffff81111561098457610983610804565b5b61099085828601610921565b925050602083013567ffffffffffffffff8111156109b1576109b0610804565b5b6109bd85828601610921565b9150509250929050565b6000819050919050565b6109da816109c7565b81146109e557600080fd5b50565b6000813590506109f7816109d1565b92915050565b600060208284031215610a1357610a126107ff565b5b6000610a21848285016109e8565b91505092915050565b600081519050919050565b600082825260208201905092915050565b60005b83811015610a64578082015181840152602081019050610a49565b83811115610a73576000848401525b50505050565b6000610a8482610a2a565b610a8e8185610a35565b9350610a9e818560208601610a46565b610aa781610813565b840191505092915050565b60006020820190508181036000830152610acc8184610a79565b905092915050565b600073ffffffffffffffffffffffffffffffffffffffff82169050919050565b6000610aff82610ad4565b9050919050565b610b0f81610af4565b82525050565b60008115159050919050565b610b2a81610b15565b82525050565b6000608082019050610b456000830187610b06565b8181036020830152610b578186610a79565b90508181036040830152610b6b8185610a79565b9050610b7a6060830184610b21565b95945050505050565b600081519050919050565b600082825260208201905092915050565b6000819050602082019050919050565b610bb8816109c7565b82525050565b6000610bca8383610baf565b60208301905092915050565b6000602082019050919050565b6000610bee82610b83565b610bf88185610b8e565b9350610c0383610b9f565b8060005b83811015610c34578151610c1b8882610bbe565b9750610c2683610bd6565b925050600181019050610c07565b5085935050505092915050565b60006020820190508181036000830152610c5b8184610be3565b905092915050565b6000602082019050610c786000830184610b21565b92915050565b6000819050919050565b610c9181610c7e565b8114610c9c57600080fd5b50565b600081359050610cae81610c88565b92915050565b600060208284031215610cca57610cc96107ff565b5b6000610cd884828501610c9f565b91505092915050565b610cea816109c7565b82525050565b6000602082019050610d056000830184610ce1565b92915050565b600081905092915050565b6000610d2182610a2a565b610d2b8185610d0b565b9350610d3b818560208601610a46565b80840191505092915050565b6000610d538285610d16565b9150610d5f8284610d16565b91508190509392505050565b7f436572746966696361746520616c726561647920697373756564000000000000600082015250565b6000610da1601a83610a35565b9150610dac82610d6b565b602082019050919050565b60006020820190508181036000830152610dd081610d94565b9050919050565b60006040820190508181036000830152610df18185610a79565b90508181036020830152610e058184610a79565b90509392505050565b7f4e487b7100000000000000000000000000000000000000000000000000000000600052602260045260246000fd5b60006002820490506001821680610e5557607f821691505b602082108103610e6857610e67610e0e565b5b5091905056fea2646970667358221220e46aa2397b081ccdd5a320f01da4bd9607201e913a5254982dcb09d619d8719364736f6c634300080d0033",
  "immutableReferences": {},
  "source": "// SPDX-License-Identifier: MIT\r\npragma solidity ^0.8.13;\r\n\r\ncontract Certificate {\r\n    struct Cert {\r\n        address issuer;\r\n        string studentName;\r\n        string programName;\r\n        bool isValid;\r\n    }\r\n\r\n    mapping(bytes32 => Cert) public certificates;\r\n    bytes32[] public certificateHashes;\r\n\r\n    event CertificateIssued(\r\n        bytes32 indexed certificateHash,\r\n        address indexed issuer,\r\n        string studentName,\r\n        string programName\r\n    );\r\n    event CertificateVerified(bytes32 indexed certificateHash, bool isValid);\r\n\r\n    function issueCertificate(\r\n        string memory studentName,\r\n        string memory programName\r\n    ) public {\r\n        bytes32 certificateHash = keccak256(\r\n            abi.encodePacked(studentName, programName)\r\n        );\r\n        require(\r\n            certificates[certificateHash].issuer == address(0),\r\n            \"Certificate already issued\"\r\n        );\r\n\r\n        certificates[certificateHash] = Cert(\r\n            msg.sender,\r\n            studentName,\r\n            programName,\r\n            true\r\n        );\r\n        certificateHashes.push(certificateHash);\r\n        emit CertificateIssued(\r\n            certificateHash,\r\n            msg.sender,\r\n            studentName,\r\n            programName\r\n        );\r\n    }\r\n\r\n    function getCertificateHashes() public view returns (bytes32[] memory) {\r\n        return certificateHashes;\r\n    }\r\n\r\n    function verifyCertificate(\r\n        bytes32 certificateHash\r\n    ) public view returns (bool) {\r\n        return certificates[certificateHash].isValid;\r\n    }\r\n\r\n    function getStudentName(\r\n        bytes32 certificateHash\r\n    ) public view returns (string memory) {\r\n        return certificates[certificateHash].studentName;\r\n    }\r\n\r\n    function getProgramName(\r\n        bytes32 certificateHash\r\n    ) public view returns (string memory) {\r\n        return certificates[certificateHash].programName;\r\n    }\r\n}\r\n",
  "sourcePath": "C:\\Users\\wassim\\Desktop\\cert-blockchain\\contracts\\Certificate.sol",
  "compiler": {
    "name": "solc",
    "version": "0.8.13+commit.abaa5c0e.Emscripten.clang"
  },
  "schemaVersion": "3.4.16",
  "updatedAt": "2024-03-28T14:54:09.840Z",
  "networkType": "ethereum",
  "devdoc": {
    "kind": "dev",
    "methods": {},
    "version": 1
  },
  "userdoc": {
    "kind": "user",
    "methods": {},
    "version": 1
  }
}